S00B0000534F532E7372656324
S11300000C9446000C94DD010C9409020C94350206
S11300100C9463000C94C4030C9463000C9463006C
S11300200C9463000C9494030C9463000C94640388
S11300300C9463000C9463000C9463000C946300B0
S11300400C9463000C9463000C9463000C946300A0
S11300500C946300A104AC04B704C705C204C7052B
S1130060CD04D804E304EE0404050F051A05C905FC
S11300702505C90530053B0546055105670572058B
S11300807D05880593059E05A905B40511241FBEA9
S1130090CFE5D8E0DEBFCDBF10E0A0E6B0E0E6E8F3
S11300A0F0E102C005900D92A239B107D9F720E022
S11300B0A2E9B0E001C01D92A03CB207E1F70E94A2
S11300C030010C9441080C9400008091920081113D
S11300D006C081E0809366008093920007C081305F
S11300E029F482E0809366001092920083E690E007
S11300F00E941E01089580E690E00E941E018091F6
S113010093009091940001969093940080939300AF
S1130110089583E690E00E941E0108958FB78068D9
S11301208FBF78940E94C90690919500892B809383
S1130130950083E690E00E94F5008093950080E6A8
S113014090E00E94F50090919500892B8093950092
S113015089E890E090937500809374008FE690E0B6
S11301600E94A60790919500892B809395008BE7B8
S113017090E090936E0080936D0088E690E00E947A
S1130180A60790919500892B8093950062E085E6FF
S113019090E00E94D80790919500892B8093950058
S11301A086E790E00E94E30790919500892B809365
S11301B0950061E085E690E00E94D8079091950053
S11301C0892B8093950088E790E00E94E307909143
S11301D09500892B809395008FEF84BB15BA8ABB59
S11301E01BBA08950E94FE060895CF93DF930097EB
S11301F0D9F0FC0121812830C8F420812430C0F4D6
S1130200EC0161E00E9437018A81882319F0813072
S113021031F010C060E0CE010E9477010CC061E0B3
S1130220CE010E94770107C080E005C080E003C0D2
S113023080E001C080E0DF91CF910895009751F0F4
S1130240FC012181283040F42081243038F40E94BC
S1130250B801089580E0089580E0089580E008954D
S11302600E948E000E94F20080E090E008950097C2
S1130270B1F1DC0111962C911197283090F5EC9195
S1130280E43088F56623B1F0613079F5F0E0EE0FE3
S1130290FF1FE757FF4F0190F081E02D308181E08F
S11302A090E002C0880F991F2A95E2F7832B808380
S11302B081E00895F0E0EE0FFF1FE757FF4F019034
S11302C0F081E02D308181E090E002C0880F991F19
S11302D02A95E2F780958323808381E0089580E066
S11302E0089580E0089580E0089580E008950097DF
S11302F0B9F1DC0111962C911197283098F5EC9105
S1130300E43090F5662319F06130B1F02FC0F0E0CD
S1130310EE0FFF1FEF57FF4F0190F081E02D30816A
S113032081E090E002C0880F991F2A95E2F780953A
S11303308323808381E00895F0E0EE0FFF1FEF57E1
S1130340FF4F0190F081E02D308181E090E002C008
S1130350880F991F2A95E2F7832B808381E0089503
S113036080E0089580E0089580E0089580E0089595
S11303700097E9F0DC0111962C9111972830C8F40C
S1130380EC91E430C0F4F0E0EE0FFF1FEF57FF4FA5
S11303900190F081E02D308181E090E002C0880F6F
S11303A0991F2A95E2F78327808381E0089580E0EE
S11303B0089580E0089580E008951F920F920FB68B
S11303C00F9211242F933F934F935F936F937F93D7
S11303D08F939F93AF93BF93EF93FF938AB78064F8
S11303E08ABFE0919A00F0919B00309709F009953B
S11303F0FF91EF91BF91AF919F918F917F916F91F9
S11304005F914F913F912F910F900FBE0F901F90CE
S113041018951F920F920FB60F9211242F933F93AA
S11304204F935F936F937F938F939F93AF93BF93F8
S1130430EF93FF938AB780688ABFE0919800F091A8
S11304409900309709F00995FF91EF91BF91AF9111
S11304509F918F917F916F915F914F913F912F91D8
S11304600F900FBE0F901F9018951F920F920FB60A
S11304700F9211242F933F934F935F936F937F9326
S11304808F939F93AF93BF93EF93FF938AB7806843
S11304908ABFE0919600F0919700309709F0099592
S11304A0FF91EF91BF91AF919F918F917F916F9148
S11304B05F914F913F912F910F900FBE0F901F901E
S11304C018950097D1F06330D0F4613051F018F0F2
S11304D0623069F016C090939B0080939A0081E08B
S11304E00895909399008093980081E008959093E3
S11304F097008093960081E0089580E0089580E05D
S1130500089580E00895633008F069C0853008F0EC
S113051068C0613069F120F0623009F451C063C0F1
S1130520813071F028F0823099F08330C9F05DC0D9
S113053085B78E7F85BF85B78D7F85BF81E00895A0
S113054085B7816085BF85B78D7F85BF81E00895BC
S113055085B78E7F85BF85B7826085BF81E00895AA
S113056085B7816085BF85B7826085BF81E00895C6
S1130570813071F028F0823099F08330C9F037C0AF
S113058085B78B7F85BF85B7877F85BF81E0089559
S113059085B7846085BF85B7877F85BF81E008956F
S11305A085B78B7F85BF85B7886085BF81E0089557
S11305B085B7846085BF85B7886085BF81E008956D
S11305C0823019F0833031F014C084B78F7B84BF3C
S11305D081E0089584B7806484BF81E0089580E059
S11305E0089580E0089580E0089580E0089580E013
S11305F0089580E008951F93CF93DF9300D0CDB783
S1130600DEB7009709F457C0FC012181233008F0BC
S113061054C02130E9F018F0223091F14AC02BB7D0
S11306202F7B2BBF2AB720642ABF60E080810E9401
S11306308302182F83E0898382E08A8360E0CE01FD
S113064001960E943701812B9BB790649BBF36C0F3
S11306502BB72F772BBF2AB720682ABF61E0808190
S11306600E948302182F83E089838A8360E0CE018D
S113067001960E943701812B9BB790689BBF1EC0D7
S11306802BB72F7D2BBF2AB720622ABF62E080815F
S11306900E948302182F88B3898382E08A8360E0F2
S11306A0CE0101960E943701812B9BB790629BBFBC
S11306B005C080E003C080E001C080E00F900F908F
S11306C0DF91CF911F9108951F920F920FB60F9251
S11306D011242F933F934F935F936F937F938F9343
S11306E09F93AF93BF93EF93FF938091A00090915A
S11306F0A100892B41F088B78E7F88BFE091A000CC
S1130700F091A1000995FF91EF91BF91AF919F9155
S11307108F917F916F915F914F913F912F910F90A6
S11307200FBE0F901F9018951F920F920FB60F9245
S113073011242F933F934F935F936F937F938F93E2
S11307409F93AF93BF93EF93FF9380919E009091FB
S11307509F00892B41F088B78B7F88BFE0919E0072
S1130760F0919F000995FF91EF91BF91AF919F91F7
S11307708F917F916F915F914F913F912F910F9046
S11307800FBE0F901F9018951F920F920FB60F92E5
S113079011242F933F934F935F936F937F938F9382
S11307A09F93AF93BF93EF93FF9380919C0090919D
S11307B09D00892B41F088B78F7B88BFE0919C0016
S11307C0F0919D000995FF91EF91BF91AF919F9199
S11307D08F917F916F915F914F913F912F910F90E6
S11307E00FBE0F901F901895009709F47CC0FC0170
S11307F02081233008F079C031813A3008F077C085
S1130800213019F120F0223009F450C072C012BE18
S113081013BE1CBEFC01228122BF23B7206823BF64
S113082023B72F7B23BF23B7277F23BF23B72F7E75
S113083023BF23B72F7D23BF8481813009F05BC0A0
S113084089B7816089BF80E008951CBC1DBC1FBCB2
S11308501EBC1BBC1ABCFC01228133813DBD2CBDD6
S11308602FB528602FBD2FB524602FBD2FB52E7F47
S11308702FBD2FB52D7F2FBD2EB52F7E2EBD2EB5AE
S1130880277F2EBD2FB52F7B2FBD2FB52F772FBDE3
S11308902FB52F7E2FBD2FB52F7D2FBD84818130A5
S11308A061F589B7846089BF80E0089514BC15BCE4
S11308B013BCFC01228124BD25B5206825BD25B5C6
S11308C02F7B25BD25B5277F25BD25B52F7E25BDCD
S11308D025B52F7D25BD8481813089F489B7806455
S11308E089BF80E0089583E0089583E0089583E05C
S11308F0089583E0089580E0089580E0089580E0FD
S11309000895009709F43BC1DC012C91233008F0D1
S113091038C11196EC91EA3008F035C1213009F460
S113092068C020F0223009F4C7C02FC18E2F90E098
S11309308A30910508F02BC1FC01E65DFF4F0C9451
S11309403B0883B78E7F83BF83B78D7F83BF83B715
S11309508B7F83BF80E0089583B7816083BF83B7B3
S11309608D7F83BF83B78B7F83BF80E0089583B778
S11309708E7F83BF83B7826083BF83B78B7F83BF40
S113098080E0089583B7816083BF83B7826083BFAB
S113099083B78B7F83BF80E0089583B78E7F83BF47
S11309A083B78D7F83BF83B7846083BF80E008955E
S11309B083B7816083BF83B78D7F83BF83B7846030
S11309C083BF80E0089583B78E7F83BF83B782603F
S11309D083BF83B7846083BF80E0089583B7816059
S11309E083BF83B7826083BF83B7846083BF80E0A3
S11309F008958E2F90E08A30910508F0CAC0FC015A
S1130A00EC5CFF4F0C943B088EB58E7F8EBD8EB58B
S1130A108D7F8EBD8EB58B7F8EBD80E008958EB5A3
S1130A2081608EBD8EB58D7F8EBD8EB58B7F8EBD64
S1130A3080E008958EB58E7F8EBD8EB582608EBDAA
S1130A408EB58B7F8EBD80E008958EB581608EBD9E
S1130A508EB582608EBD8EB58B7F8EBD80E008958D
S1130A608EB58E7F8EBD8EB58D7F8EBD8EB5846026
S1130A708EBD80E008958EB581608EBD8EB58D7F6C
S1130A808EBD8EB584608EBD80E008958EB58E7F58
S1130A908EBD8EB582608EBD8EB584608EBD80E0C5
S1130AA008958EB581608EBD8EB582608EBD8EB583
S1130AB084608EBD80E008958E2F90E0883091058B
S1130AC008F069C0FC01E25CFF4F0C943B0885B55B
S1130AD08B7F85BD85B58D7F85BD85B58E7F85BDB5
S1130AE080E0089585B5846085BD85B58D7F85BD1D
S1130AF085B58E7F85BD80E0089585B58B7F85BDE6
S1130B0085B5826085BD85B58E7F85BD80E00895FD
S1130B1085B5846085BD85B5826085BD85B58E7FCC
S1130B2085BD80E0089585B58B7F85BD85B58D7FB6
S1130B3085BD85B5816085BD80E0089585B58460F7
S1130B4085BD85B58D7F85BD85B5816085BD80E01A
S1130B50089585B58B7F85BD85B5826085BD85B5D6
S1130B60816085BD80E0089585B5846085BD85B5C7
S1130B70826085BD85B5816085BD80E0089583E090
S1130B80089583E0089583E0089583E0089583E061
S1130B90089583E0089583E00895833038F5813023
S1130BA079F018F08230B9F023C083B78E7F83BF09
S1130BB083B78D7F83BF83B78B7F83BF80E0089526
S1130BC08EB58E7F8EBD8EB58D7F8EBD8EB58B7F9F
S1130BD08EBD80E0089585B58B7F85BD85B58D7FFD
S1130BE085BD85B58E7F85BD80E0089583E0089539
S1130BF083E008950097F1F0FC0120812330E0F4B4
S1130C0031813A30D8F4213049F018F0223069F0BB
S1130C1017C0FC01828182BF80E00895FC018281BB
S1130C2093819DBD8CBD80E00895FC01828184BDCB
S1130C3080E0089583E0089583E0089583E00895B3
S1130C4083E008950097D1F06330D0F4613051F01F
S1130C5018F0623069F016C09093A1008093A00050
S1130C6080E0089590939F0080939E0080E0089513
S1130C7090939D0080939C0080E0089583E0089504
S1130C8083E0089583E008958091BF00813099F155
S1130C9080E0089551E0540F852F29C0E42FF0E03F
S1130CA0EE0FFF1FE754FF4FA081B1812C91E82F75
S1130CB0F0E0EE0FFF1FE754FF4F0190F081E02DAD
S1130CC09081291748F4E32FF0E011969C91EE559A
S1130CD0FF4F90833F5F0AC0921740F4632F70E088
S1130CE09181FB01EE55FF4F90833F5F8F5F83300F
S1130CF0A8F2452F02C030E040E0433058F281E0D2
S1130D0008951092A9001092AA001092AB001092BC
S1130D10AC002EC08091A9009091AA00A091AB00D4
S1130D20B091AC00880F991F880F991FFC01E355FF
S1130D30FF4F40815181628173814F5F5F4F6F4FDD
S1130D407F4F40835183628373838091A900909184
S1130D50AA00A091AB00B091AC000196A11DB11DF9
S1130D608093A9009093AA00A093AB00B093AC0029
S1130D708091A9009091AA00A091AB00B091AC0021
S1130D800397A105B10530F28AE790E00E94290893
S1130D9008958091BF0081111DC081E896E0909371
S1130DA0800080937F008AE790E00E94F007833000
S1130DB099F090E009C0E92FF0E0EE0FFF1FE7542F
S1130DC0FF4F118210829F5F9330A8F391E09093BC
S1130DD0BF00089584E0089586E008951BBA8091C9
S1130DE0BF00813049F480917A000E942208833048
S1130DF021F010926700089583E0089580916600C1
S1130E00813009F09BC08091BF008130B9F78AE737
S1130E1090E00E941008833089F30E9444061092E7
S1130E20A5001092A6001092A7001092A80078C006
S1130E308FEF8BBB8091A5009091A600A091A70095
S1130E40B091A800FC01EE55FF4FE081F0E0EE0FF9
S1130E50FF1FE754FF4F0190F081E02D82819381C1
S1130E60A0E0B0E04091A5005091A6006091A700D9
S1130E707091A800FA01EE55FF4FE081F0E0EE0F0B
S1130E80FF1FEE0FFF1FE355FF4F40815181628129
S1130E90738184179507A607B70779F58091A50094
S1130EA09091A600A091A700B091A800FC01EE5576
S1130EB0FF4FE081F0E0EE0FFF1FE754FF4F01907A
S1130EC0F081E02D0580F681E02D09958091A50043
S1130ED09091A600A091A700B091A800FC01EE5546
S1130EE0FF4FE081F0E0EE0FFF1FEE0FFF1FE35511
S1130EF0FF4F10821182128213828091A50090917B
S1130F00A600A091A700B091A8000196A11DB11D53
S1130F108093A5009093A600A093A700B093A80087
S1130F208091A5009091A600A091A700B091A8007F
S1130F300397A105B10508F47BCF60CF80916600CB
S1130F40823009F05BCF0E94EE0658CFDC01119687
S1130F502C911197233010F515964D915C911697AD
S1130F60452BF1F00097F1F03091BF003130E1F4FE
S1130F7030E0F901EE0FFF1FE754FF4F0190F081BD
S1130F80E02D45815681452B89F4220F331FF90149
S1130F90E754FF4F9183808381E0089580E00895B2
S1130FA080E0089580E0089580E0089580E0089549
S1130FB0009729F0633028F40E946102089580E0CC
S1130FC0089580E00895009739F0FC0121812330D1
S1130FD028F40E94FB02089580E0089580E00895BB
S1130FE01F93CF93DF93009791F0FC01208123306E
S1130FF080F421812A3078F4EC010E94F403182F44
S113100068818D819E810E942206812B05C083E028
S113101003C083E001C083E0DF91CF911F91089565
S1131020009751F0FC012081233040F421812A30C3
S113103038F40E948104089583E0089583E00895BC
S113104083E00895833018F40E94CD05089583E069
S11310500895009751F0FC012081233040F4218150
S11310602A3038F40E94FA05089583E0089583E055
S1131070089583E00895EE0FFF1F0590F491E02D8D
S10910800994F894FFCF6F
S113108601060001050002010102F401000000024C
S1131096012C01000000030203010007F80001000F
S11310A6003B003800350032003A00370034003186
S10510B6000034
S9030000FC
